{
  "contractName": "Donation",
  "abi": [
    {
      "constant": true,
      "inputs": [],
      "name": "candidatesCount",
      "outputs": [
        {
          "name": "",
          "type": "uint256"
        }
      ],
      "payable": false,
      "stateMutability": "view",
      "type": "function"
    },
    {
      "constant": true,
      "inputs": [
        {
          "name": "",
          "type": "uint256"
        }
      ],
      "name": "candidates",
      "outputs": [
        {
          "name": "id",
          "type": "uint256"
        },
        {
          "name": "name",
          "type": "string"
        },
        {
          "name": "party",
          "type": "string"
        },
        {
          "name": "amount",
          "type": "uint256"
        }
      ],
      "payable": false,
      "stateMutability": "view",
      "type": "function"
    },
    {
      "constant": true,
      "inputs": [
        {
          "name": "",
          "type": "address"
        }
      ],
      "name": "voters",
      "outputs": [
        {
          "name": "",
          "type": "bool"
        }
      ],
      "payable": false,
      "stateMutability": "view",
      "type": "function"
    },
    {
      "inputs": [],
      "payable": false,
      "stateMutability": "nonpayable",
      "type": "constructor"
    },
    {
      "anonymous": false,
      "inputs": [
        {
          "indexed": true,
          "name": "_candidateId",
          "type": "uint256"
        }
      ],
      "name": "donatedEvent",
      "type": "event"
    },
    {
      "constant": false,
      "inputs": [
        {
          "name": "_candidateId",
          "type": "uint256"
        },
        {
          "name": "_donationAmount",
          "type": "uint256"
        }
      ],
      "name": "donate",
      "outputs": [],
      "payable": true,
      "stateMutability": "payable",
      "type": "function"
    }
  ],
  "bytecode": "0x6060604052341561000f57600080fd5b6100966040805190810160405280600b81526020017f43616e64696461746520310000000000000000000000000000000000000000008152506040805190810160405280600881526020017f44656d6f637261740000000000000000000000000000000000000000000000008152506101226401000000000261036f176401000000009004565b61011d6040805190810160405280600b81526020017f43616e64696461746520320000000000000000000000000000000000000000008152506040805190810160405280600a81526020017f52657075626c6963616e000000000000000000000000000000000000000000008152506101226401000000000261036f176401000000009004565b610268565b600260008154809291906001019190505550608060405190810160405280600254815260200183815260200182815260200160008152506001600060025481526020019081526020016000206000820151816000015560208201518160010190805190602001906101949291906101c3565b5060408201518160020190805190602001906101b19291906101c3565b50606082015181600301559050505050565b828054600181600116156101000203166002900490600052602060002090601f016020900481019282601f1061020457805160ff1916838001178555610232565b82800160010185558215610232579182015b82811115610231578251825591602001919060010190610216565b5b50905061023f9190610243565b5090565b61026591905b80821115610261576000816000905550600101610249565b5090565b90565b6104e1806102776000396000f300606060405260043610610062576000357c0100000000000000000000000000000000000000000000000000000000900463ffffffff1680630cdd53f6146100675780632d35a8a2146100885780633477ee2e146100b1578063a3ec138d14610201575b600080fd5b6100866004808035906020019091908035906020019091905050610252565b005b341561009357600080fd5b61009b61031b565b6040518082815260200191505060405180910390f35b34156100bc57600080fd5b6100d26004808035906020019091905050610321565b60405180858152602001806020018060200184815260200183810383528681815460018160011615610100020316600290048152602001915080546001816001161561010002031660029004801561016b5780601f106101405761010080835404028352916020019161016b565b820191906000526020600020905b81548152906001019060200180831161014e57829003601f168201915b50508381038252858181546001816001161561010002031660029004815260200191508054600181600116156101000203166002900480156101ee5780601f106101c3576101008083540402835291602001916101ee565b820191906000526020600020905b8154815290600101906020018083116101d157829003601f168201915b5050965050505050505060405180910390f35b341561020c57600080fd5b610238600480803573ffffffffffffffffffffffffffffffffffffffff1690602001909190505061034f565b604051808215151515815260200191505060405180910390f35b60008211801561026457506002548211155b151561026f57600080fd5b60016000803373ffffffffffffffffffffffffffffffffffffffff1673ffffffffffffffffffffffffffffffffffffffff16815260200190815260200160002060006101000a81548160ff021916908315150217905550806001600084815260200190815260200160002060030160008282540192505081905550817f72d53a4ff9f09e73504a6d8a528e30493e53d8393a83c1e1e63c468e97eb09cf60405160405180910390a25050565b60025481565b6001602052806000526040600020600091509050806000015490806001019080600201908060030154905084565b60006020528060005260406000206000915054906101000a900460ff1681565b600260008154809291906001019190505550608060405190810160405280600254815260200183815260200182815260200160008152506001600060025481526020019081526020016000206000820151816000015560208201518160010190805190602001906103e1929190610410565b5060408201518160020190805190602001906103fe929190610410565b50606082015181600301559050505050565b828054600181600116156101000203166002900490600052602060002090601f016020900481019282601f1061045157805160ff191683800117855561047f565b8280016001018555821561047f579182015b8281111561047e578251825591602001919060010190610463565b5b50905061048c9190610490565b5090565b6104b291905b808211156104ae576000816000905550600101610496565b5090565b905600a165627a7a723058203d489f2dbfe5ddfc1f5b42fc008ae08a0419db3f08bc803224e2f946a641ca7a0029",
  "source": "pragma solidity ^0.4.2;\r\n\r\ncontract Donation {\r\n\r\n\tstruct Candidate {\r\n\t\tuint id;\r\n\t\tstring name;\r\n\t\tstring party;\r\n\t\tuint amount;\r\n\t\t// address addr;\r\n\t}\r\n\r\n\tmapping (address => bool) public voters;\r\n\tmapping(uint => Candidate) public candidates;\r\n\tuint public candidatesCount;\r\n\r\n\tevent donatedEvent(\r\n\t\tuint indexed _candidateId\r\n\t);\r\n\r\n\r\n\t//Constuctor\r\n\tfunction Donation () public {\r\n\t\taddCandidate(\"Candidate 1\", \"Democrat\");\r\n\t\taddCandidate(\"Candidate 2\", \"Republican\");\r\n\t}\r\n\r\n\tfunction addCandidate (string _name, string _party) private {\r\n\t\tcandidatesCount ++;\r\n\t\tcandidates[candidatesCount] = Candidate(candidatesCount, _name, _party, 0);\r\n\t}\r\n\t\r\n\tfunction donate(uint _candidateId, uint _donationAmount) public payable {\r\n\t\t// require (!voters[msg.sender]);\r\n\t\trequire(_candidateId > 0 && _candidateId <= candidatesCount);\r\n\t\tvoters[msg.sender] = true;\r\n\t\tcandidates[_candidateId].amount += _donationAmount;\r\n\t\tdonatedEvent(_candidateId);\r\n\t}\r\n}\r\n",
  "sourcePath": "D:\\PROGRAMMING\\fundLink\\contracts\\Donation.sol",
  "compiler": {
    "name": "solc",
    "version": "0.4.19+commit.c4cbbb05.Emscripten.clang"
  },
  "schemaVersion": "2.0.0",
  "updatedAt": "2018-03-21T18:05:57.477Z"
}